:020000040800F2
:10000000005000204D0500088D0500088D050008F2
:100010008D0500088D0500088D0500080000000012
:100020000000000000000000000000008D05000836
:100030008D050008000000008D0500081905000866
:100040008D0500088D0500088D0500088D05000848
:100050008D0500088D0500088D0500088D05000838
:100060008D0500088D0500088D0500088D05000828
:100070008D0500088D0500088D0500088D05000818
:100080008D0500088D0500088D0500088D05000808
:100090008D0500088D0500088D0500088D050008F8
:1000A0008D0500088D0500088D0500088D050008E8
:1000B0008D0500088D0500088D0500088D050008D8
:1000C0008D0500088D0500088D0500088D050008C8
:1000D0008D0500088D0500088D0500088D050008B8
:1000E0008D0500088D0500088D0500080000000042
:1000F0000000000000000000000000000000000000
:0C01000000000000000000005FF808F1A3
:10010C0010B5054C237833B9044B13B10448AFF345
:10011C0000800123237010BD0000002000000000AF
:10012C009005000808B5034B1BB103490348AFF316
:10013C00008008BD000000000400002090050008AD
:10014C0080B500AF00F022F80F21022000F04AF831
:10015C0001220D21022000F085F801220D21022040
:10016C0000F04EF900220D21022000F049F94FF465
:10017C007A7000F093F901220D21022000F040F971
:10018C004FF47A7000F08AF9ECE7000080B400AF0D
:10019C00124B00221A60114B1B68104A43F00103EA
:1001AC0013600E4B1B680D4A43F0800313600B4B1E
:1001BC000A4A1B681360094B084A1B681360074BFB
:1001CC00064A1B681360054B044A1B681360044BFA
:1001DC0000221A6000BFBD4680BC70470010024070
:1001EC000410024080B483B000AF03460A46FB7192
:1001FC001346BB71FB79022B11D0022B27DC002B91
:10020C0002D0012B17D022E0134B1B68BA790121C5
:10021C0001FA02F21146104A0B43136017E00F4B20
:10022C001B68BA790B3A012101FA02F211460B4A0A
:10023C000B4313600BE00A4B1B68BA79213A01217E
:10024C0001FA02F21146064A0B43136000BF00BFCD
:10025C000C37BD4680BC7047141002401810024089
:10026C001C10024080B483B000AF0346FB710B46F8
:10027C00BB7113467B71FB79022B78D0022B00F3F8
:10028C00B380002B02D0012B39D0ADE0BB79072B0A
:10029C0017D8584B1B68BA7992000F2101FA02F259
:1002AC00D2431146534A0B401360524B1B68797969
:1002BC00BA79920001FA02F211464E4A0B431360CE
:1002CC008DE0BB79102B00F28A804A4B5B68BA79BF
:1002DC00083A92000F2101FA02F2D2431146454A24
:1002EC000B405360434B5B687979BA79083A9200BA
:1002FC0001FA02F211463F4A0B4353606FE0BB799F
:10030C00072B17D83C4B1B68BA7992000F2101FAC6
:10031C0002F2D2431146384A0B401360364B1B682D
:10032C007979BA79920001FA02F21146324A0B43FA
:10033C00136056E0BB79102B53D82F4B5B68BA79FE
:10034C00083A92000F2101FA02F2D24311462A4ACE
:10035C000B405360284B5B687979BA79083A920064
:10036C0001FA02F21146244A0B43536039E0BB797F
:10037C00072B17D8214B1B68BA7992000F2101FA71
:10038C0002F2D24311461D4A0B4013601B4B1B68F3
:10039C007979BA79920001FA02F21146174A0B43A5
:1003AC00136020E0BB79102B1DD8144B5B68BA7915
:1003BC00083A92000F2101FA02F2D24311460F4A79
:1003CC000B4053600D4B5B687979BA79083A92000F
:1003DC0001FA02F21146094A0B43536003E000BFD5
:1003EC0002E000BF00E000BF00BF0C37BD4680BC80
:1003FC00704700BF00080140000C01400010014094
:10040C0080B483B000AF0346FB710B46BB7113463F
:10041C007B71FB79022B26D0022B34DC002B02D013
:10042C00012B10D02FE07B79002B05D07A79BB798A
:10043C009A40174B1A6126E0BB79103301229A407F
:10044C00134B1A611FE07B79002B05D07A79BB79AD
:10045C009A40104B1A6116E0BB79103301229A4076
:10046C000C4B1A610FE07B79002B05D07A79BB79A4
:10047C009A40094B1A6105E0BB79103301229A406E
:10048C00054B1A6100BF00BF0C37BD4680BC7047DE
:10049C0000080140000C01400010014080B485B000
:1004AC0000AF78607B684FF47A7202FB03F3FB6059
:1004BC00154B1B68144A23F002031360FB68013BC5
:1004CC00114A23F07F4353600F4B00229A600E4B6E
:1004DC001B680D4A43F00103136000E000BF0A4B98
:1004EC001B681B0C03F00103002BF7D0064B1B6899
:1004FC00054A23F001031360034B00229A6000BFEE
:10050C001437BD4680BC704710E000E080B500AFEA
:10051C00084B1B689847084B1B78002B05D0074BE2
:10052C001B68064A23F001031360044B00229A60F7
:10053C0000BF80BD1C0000202000002010E000E067
:10054C000A480B490B4A002302E0D458C450043328
:10055C00C4188C42F9D3084A084C002301E01360FC
:10056C000432A242FBD3FFF7EBFD704700000020E2
:10057C0000000020B005000800000020240000202E
:10058C00FEE70000F8B500BFF8BC08BC9E467047FB
:0C059C00F8B500BFF8BC08BC9E467047D4
:0405A8003101000815
:0405AC000D01000835
:040000050800054D9D
:00000001FF
